{
  "contractName": "sendEther",
  "abi": [
    {
      "inputs": [],
      "payable": false,
      "stateMutability": "view",
      "type": "function",
      "signature": "0x1edb2254",
      "constant": true,
      "name": "showReceiver",
      "outputs": [
        {
          "name": "",
          "type": "address"
        }
      ]
    },
    {
      "constant": false,
      "inputs": [
        {
          "name": "_receiver",
          "type": "address"
        },
        {
          "name": "_amount",
          "type": "uint256"
        }
      ],
      "name": "sendEtherToReceiver",
      "outputs": [
        {
          "name": "payale",
          "type": "address"
        }
      ],
      "payable": true,
      "stateMutability": "payable",
      "type": "function",
      "signature": "0xec5d3641"
    },
    {
      "constant": false,
      "inputs": [
        {
          "name": "_amount",
          "type": "uint256"
        }
      ],
      "name": "sendEtherToReceiver",
      "outputs": [],
      "payable": true,
      "stateMutability": "payable",
      "type": "function",
      "signature": "0x0880b8fb"
    }
  ],
  "bytecode": "0x608060405234801561001057600080fd5b5061017f806100206000396000f3fe60806040526004361061004c576000357c0100000000000000000000000000000000000000000000000000000000900463ffffffff1680631edb225414610051578063ec5d3641146100a8575b600080fd5b34801561005d57600080fd5b506100666100f6565b604051808273ffffffffffffffffffffffffffffffffffffffff1673ffffffffffffffffffffffffffffffffffffffff16815260200191505060405180910390f35b6100f4600480360360408110156100be57600080fd5b81019080803573ffffffffffffffffffffffffffffffffffffffff169060200190929190803590602001909291905050506100fe565b005b600033905090565b8173ffffffffffffffffffffffffffffffffffffffff166108fc670de0b6b3a764000083029081150290604051600060405180830381858888f1935050505015801561014e573d6000803e3d6000fd5b50505056fea165627a7a723058201e68be53e4e5566fced87070316d86cd91057347ada21816f8d8ddd7569a52270029",
  "source": "pragma solidity ^0.5.0;\n\ncontract sendEther {\n  address payable sender;\n\n  function showReceiver() public view returns (address payable) {\n      return msg.sender;\n  }\n\n  function sendEtherToReceiver(address payable _receiver, uint256 _amount) public payable {\n    _receiver.transfer(_amount*10**18);\n  }\n}\n",
  "sourcePath": "/home/josh/Documents/smartContracts/sendEther/contracts/sendEther.sol",
  "compiler": {
    "name": "solc",
    "version": "0.5.0+commit.1d4f565a.Emscripten.clang"
  },
  "schemaVersion": "3.0.8",
  "updatedAt": "2019-05-30T02:31:33.194Z",
  "devdoc": {
    "methods": {}
  },
  "userdoc": {
    "methods": {}
  }
}